{"abi":[{"type":"constructor","inputs":[{"name":"_relayer","type":"address","internalType":"address"}],"stateMutability":"nonpayable"},{"type":"function","name":"depositNFT","inputs":[{"name":"nftContract","type":"address","internalType":"address"},{"name":"tokenId","type":"uint256","internalType":"uint256"},{"name":"stellarAddress","type":"bytes32","internalType":"bytes32"},{"name":"lockDuration","type":"uint256","internalType":"uint256"}],"outputs":[{"name":"positionId","type":"uint256","internalType":"uint256"}],"stateMutability":"nonpayable"},{"type":"function","name":"emergencyWithdraw","inputs":[{"name":"nftContract","type":"address","internalType":"address"},{"name":"tokenId","type":"uint256","internalType":"uint256"},{"name":"to","type":"address","internalType":"address"}],"outputs":[],"stateMutability":"nonpayable"},{"type":"function","name":"getPosition","inputs":[{"name":"positionId","type":"uint256","internalType":"uint256"}],"outputs":[{"name":"","type":"tuple","internalType":"struct INFTVault.Position","components":[{"name":"owner","type":"address","internalType":"address"},{"name":"nftContract","type":"address","internalType":"address"},{"name":"tokenId","type":"uint256","internalType":"uint256"},{"name":"stellarAddress","type":"bytes32","internalType":"bytes32"},{"name":"active","type":"bool","internalType":"bool"},{"name":"lockedAt","type":"uint64","internalType":"uint64"},{"name":"expiresAt","type":"uint64","internalType":"uint64"}]}],"stateMutability":"view"},{"type":"function","name":"getPositionsByOwner","inputs":[{"name":"owner","type":"address","internalType":"address"}],"outputs":[{"name":"","type":"uint256[]","internalType":"uint256[]"}],"stateMutability":"view"},{"type":"function","name":"isPositionActive","inputs":[{"name":"positionId","type":"uint256","internalType":"uint256"}],"outputs":[{"name":"","type":"bool","internalType":"bool"}],"stateMutability":"view"},{"type":"function","name":"isPositionUnlocked","inputs":[{"name":"positionId","type":"uint256","internalType":"uint256"}],"outputs":[{"name":"","type":"bool","internalType":"bool"}],"stateMutability":"view"},{"type":"function","name":"onERC721Received","inputs":[{"name":"","type":"address","internalType":"address"},{"name":"","type":"address","internalType":"address"},{"name":"","type":"uint256","internalType":"uint256"},{"name":"","type":"bytes","internalType":"bytes"}],"outputs":[{"name":"","type":"bytes4","internalType":"bytes4"}],"stateMutability":"pure"},{"type":"function","name":"owner","inputs":[],"outputs":[{"name":"","type":"address","internalType":"address"}],"stateMutability":"view"},{"type":"function","name":"pause","inputs":[],"outputs":[],"stateMutability":"nonpayable"},{"type":"function","name":"paused","inputs":[],"outputs":[{"name":"","type":"bool","internalType":"bool"}],"stateMutability":"view"},{"type":"function","name":"relayer","inputs":[],"outputs":[{"name":"","type":"address","internalType":"address"}],"stateMutability":"view"},{"type":"function","name":"renounceOwnership","inputs":[],"outputs":[],"stateMutability":"nonpayable"},{"type":"function","name":"setRelayer","inputs":[{"name":"newRelayer","type":"address","internalType":"address"}],"outputs":[],"stateMutability":"nonpayable"},{"type":"function","name":"totalPositions","inputs":[],"outputs":[{"name":"","type":"uint256","internalType":"uint256"}],"stateMutability":"view"},{"type":"function","name":"transferOwnership","inputs":[{"name":"newOwner","type":"address","internalType":"address"}],"outputs":[],"stateMutability":"nonpayable"},{"type":"function","name":"unlockPosition","inputs":[{"name":"positionId","type":"uint256","internalType":"uint256"}],"outputs":[],"stateMutability":"nonpayable"},{"type":"function","name":"unpause","inputs":[],"outputs":[],"stateMutability":"nonpayable"},{"type":"function","name":"withdrawNFT","inputs":[{"name":"positionId","type":"uint256","internalType":"uint256"}],"outputs":[],"stateMutability":"nonpayable"},{"type":"event","name":"NFTDeposited","inputs":[{"name":"positionId","type":"uint256","indexed":true,"internalType":"uint256"},{"name":"owner","type":"address","indexed":true,"internalType":"address"},{"name":"nftContract","type":"address","indexed":true,"internalType":"address"},{"name":"tokenId","type":"uint256","indexed":false,"internalType":"uint256"},{"name":"stellarAddress","type":"bytes32","indexed":false,"internalType":"bytes32"},{"name":"lockedAt","type":"uint64","indexed":false,"internalType":"uint64"},{"name":"expiresAt","type":"uint64","indexed":false,"internalType":"uint64"}],"anonymous":false},{"type":"event","name":"NFTWithdrawn","inputs":[{"name":"positionId","type":"uint256","indexed":true,"internalType":"uint256"},{"name":"owner","type":"address","indexed":true,"internalType":"address"},{"name":"nftContract","type":"address","indexed":true,"internalType":"address"},{"name":"tokenId","type":"uint256","indexed":false,"internalType":"uint256"}],"anonymous":false},{"type":"event","name":"OwnershipTransferred","inputs":[{"name":"previousOwner","type":"address","indexed":true,"internalType":"address"},{"name":"newOwner","type":"address","indexed":true,"internalType":"address"}],"anonymous":false},{"type":"event","name":"Paused","inputs":[{"name":"account","type":"address","indexed":false,"internalType":"address"}],"anonymous":false},{"type":"event","name":"PositionUnlocked","inputs":[{"name":"positionId","type":"uint256","indexed":true,"internalType":"uint256"}],"anonymous":false},{"type":"event","name":"Unpaused","inputs":[{"name":"account","type":"address","indexed":false,"internalType":"address"}],"anonymous":false},{"type":"error","name":"EnforcedPause","inputs":[]},{"type":"error","name":"ExpectedPause","inputs":[]},{"type":"error","name":"InvalidNFTContract","inputs":[]},{"type":"error","name":"InvalidStellarAddress","inputs":[]},{"type":"error","name":"NFTAlreadyDeposited","inputs":[]},{"type":"error","name":"NotAuthorizedRelayer","inputs":[]},{"type":"error","name":"NotPositionOwner","inputs":[]},{"type":"error","name":"OwnableInvalidOwner","inputs":[{"name":"owner","type":"address","internalType":"address"}]},{"type":"error","name":"OwnableUnauthorizedAccount","inputs":[{"name":"account","type":"address","internalType":"address"}]},{"type":"error","name":"PositionNotActive","inputs":[]},{"type":"error","name":"PositionNotUnlocked","inputs":[]},{"type":"error","name":"PositionStillLocked","inputs":[]},{"type":"error","name":"ReentrancyGuardReentrantCall","inputs":[]}],"bytecode":{"object":"0x608060405234801561000f575f5ffd5b506040516111bb3803806111bb83398181016040528101906100319190610274565b335f73ffffffffffffffffffffffffffffffffffffffff168173ffffffffffffffffffffffffffffffffffffffff16036100a2575f6040517f1e4fbdf700000000000000000000000000000000000000000000000000000000815260040161009991906102ae565b60405180910390fd5b6100b18161012360201b60201c565b5060016100d06100c56101e460201b60201c565b61020d60201b60201c565b5f01819055508060025f6101000a81548173ffffffffffffffffffffffffffffffffffffffff021916908373ffffffffffffffffffffffffffffffffffffffff16021790555060018081905550506102c7565b5f5f5f9054906101000a900473ffffffffffffffffffffffffffffffffffffffff169050815f5f6101000a81548173ffffffffffffffffffffffffffffffffffffffff021916908373ffffffffffffffffffffffffffffffffffffffff1602179055508173ffffffffffffffffffffffffffffffffffffffff168173ffffffffffffffffffffffffffffffffffffffff167f8be0079c531659141344cd1fd0a4f28419497f9722a3daafe3b4186f6b6457e060405160405180910390a35050565b5f7f9b779b17422d0df92223018b32b4d1fa46e071723d6817e2486d003becc55f005f1b905090565b5f819050919050565b5f5ffd5b5f73ffffffffffffffffffffffffffffffffffffffff82169050919050565b5f6102438261021a565b9050919050565b61025381610239565b811461025d575f5ffd5b50565b5f8151905061026e8161024a565b92915050565b5f6020828403121561028957610288610216565b5b5f61029684828501610260565b91505092915050565b6102a881610239565b82525050565b5f6020820190506102c15f83018461029f565b92915050565b610ee7806102d45f395ff3fe608060405234801561000f575f5ffd5b5060043610610114575f3560e01c80636a5d8e8f116100a05780638da5cb5b1161006f5780638da5cb5b146102a2578063e8810282146102c0578063eb02c301146102f0578063f2fde38b14610320578063fda1fa5f1461033c57610114565b80636a5d8e8f14610240578063715018a6146102705780638406c0791461027a5780638456cb591461029857610114565b8063551512de116100e7578063551512de1461019e5780635c975abb146101ba57806363ccce4f146101d85780636548e9bc14610208578063687cb3531461022457610114565b80630178528514610118578063023245d714610148578063150b7a02146101645780633f4ba83a14610194575b5f5ffd5b610132600480360381019061012d9190610994565b61035a565b60405161013f91906109d9565b60405180910390f35b610162600480360381019061015d9190610994565b610360565b005b61017e60048036038101906101799190610aad565b610373565b60405161018b9190610b6b565b60405180910390f35b61019c610387565b005b6101b860048036038101906101b39190610b84565b610399565b005b6101c26103a6565b6040516101cf91906109d9565b60405180910390f35b6101f260048036038101906101ed9190610994565b6103bb565b6040516101ff91906109d9565b60405180910390f35b610222600480360381019061021d9190610bd4565b6103c1565b005b61023e60048036038101906102399190610994565b6103cc565b005b61025a60048036038101906102559190610bd4565b610455565b6040516102679190610cb6565b60405180910390f35b61027861045c565b005b61028261046f565b60405161028f9190610ce5565b60405180910390f35b6102a0610494565b005b6102aa6104a6565b6040516102b79190610ce5565b60405180910390f35b6102da60048036038101906102d59190610d31565b6104cd565b6040516102e79190610da4565b60405180910390f35b61030a60048036038101906103059190610994565b6104ee565b6040516103179190610e98565b60405180910390f35b61033a60048036038101906103359190610bd4565b6104fb565b005b61034461057f565b6040516103519190610da4565b60405180910390f35b5f919050565b610368610583565b6103706105a5565b50565b5f63150b7a0260e01b905095945050505050565b61038f6105bf565b610397610646565b565b6103a16105bf565b505050565b5f5f60149054906101000a900460ff16905090565b5f919050565b6103c96105bf565b50565b60025f9054906101000a900473ffffffffffffffffffffffffffffffffffffffff1673ffffffffffffffffffffffffffffffffffffffff163373ffffffffffffffffffffffffffffffffffffffff1614610452576040517f17fb206600000000000000000000000000000000000000000000000000000000815260040160405180910390fd5b50565b6060919050565b6104646105bf565b61046d5f6106a7565b565b60025f9054906101000a900473ffffffffffffffffffffffffffffffffffffffff1681565b61049c6105bf565b6104a4610768565b565b5f5f5f9054906101000a900473ffffffffffffffffffffffffffffffffffffffff16905090565b5f6104d6610583565b6104de6107ca565b6104e66105a5565b949350505050565b6104f66108e1565b919050565b6105036105bf565b5f73ffffffffffffffffffffffffffffffffffffffff168173ffffffffffffffffffffffffffffffffffffffff1603610573575f6040517f1e4fbdf700000000000000000000000000000000000000000000000000000000815260040161056a9190610ce5565b60405180910390fd5b61057c816106a7565b50565b5f90565b61058b61080b565b600261059d61059861084c565b610875565b5f0181905550565b60016105b76105b261084c565b610875565b5f0181905550565b6105c761087e565b73ffffffffffffffffffffffffffffffffffffffff166105e56104a6565b73ffffffffffffffffffffffffffffffffffffffff16146106445761060861087e565b6040517f118cdaa700000000000000000000000000000000000000000000000000000000815260040161063b9190610ce5565b60405180910390fd5b565b61064e610885565b5f5f60146101000a81548160ff0219169083151502179055507f5db9ee0a495bf2e6ff9c91a7834c1ba4fdd244a5e8aa4e537bd38aeae4b073aa61069061087e565b60405161069d9190610ce5565b60405180910390a1565b5f5f5f9054906101000a900473ffffffffffffffffffffffffffffffffffffffff169050815f5f6101000a81548173ffffffffffffffffffffffffffffffffffffffff021916908373ffffffffffffffffffffffffffffffffffffffff1602179055508173ffffffffffffffffffffffffffffffffffffffff168173ffffffffffffffffffffffffffffffffffffffff167f8be0079c531659141344cd1fd0a4f28419497f9722a3daafe3b4186f6b6457e060405160405180910390a35050565b6107706107ca565b60015f60146101000a81548160ff0219169083151502179055507f62e78cea01bee320cd4e420270b5ea74000d11b0c9f74754ebdbfc544b05a2586107b361087e565b6040516107c09190610ce5565b60405180910390a1565b6107d26103a6565b15610809576040517fd93c066500000000000000000000000000000000000000000000000000000000815260040160405180910390fd5b565b6108136108c5565b1561084a576040517f3ee5aeb500000000000000000000000000000000000000000000000000000000815260040160405180910390fd5b565b5f7f9b779b17422d0df92223018b32b4d1fa46e071723d6817e2486d003becc55f005f1b905090565b5f819050919050565b5f33905090565b61088d6103a6565b6108c3576040517f8dfc202b00000000000000000000000000000000000000000000000000000000815260040160405180910390fd5b565b5f60026108d86108d361084c565b610875565b5f015414905090565b6040518060e001604052805f73ffffffffffffffffffffffffffffffffffffffff1681526020015f73ffffffffffffffffffffffffffffffffffffffff1681526020015f81526020015f81526020015f151581526020015f67ffffffffffffffff1681526020015f67ffffffffffffffff1681525090565b5f5ffd5b5f5ffd5b5f819050919050565b61097381610961565b811461097d575f5ffd5b50565b5f8135905061098e8161096a565b92915050565b5f602082840312156109a9576109a8610959565b5b5f6109b684828501610980565b91505092915050565b5f8115159050919050565b6109d3816109bf565b82525050565b5f6020820190506109ec5f8301846109ca565b92915050565b5f73ffffffffffffffffffffffffffffffffffffffff82169050919050565b5f610a1b826109f2565b9050919050565b610a2b81610a11565b8114610a35575f5ffd5b50565b5f81359050610a4681610a22565b92915050565b5f5ffd5b5f5ffd5b5f5ffd5b5f5f83601f840112610a6d57610a6c610a4c565b5b8235905067ffffffffffffffff811115610a8a57610a89610a50565b5b602083019150836001820283011115610aa657610aa5610a54565b5b9250929050565b5f5f5f5f5f60808688031215610ac657610ac5610959565b5b5f610ad388828901610a38565b9550506020610ae488828901610a38565b9450506040610af588828901610980565b935050606086013567ffffffffffffffff811115610b1657610b1561095d565b5b610b2288828901610a58565b92509250509295509295909350565b5f7fffffffff0000000000000000000000000000000000000000000000000000000082169050919050565b610b6581610b31565b82525050565b5f602082019050610b7e5f830184610b5c565b92915050565b5f5f5f60608486031215610b9b57610b9a610959565b5b5f610ba886828701610a38565b9350506020610bb986828701610980565b9250506040610bca86828701610a38565b9150509250925092565b5f60208284031215610be957610be8610959565b5b5f610bf684828501610a38565b91505092915050565b5f81519050919050565b5f82825260208201905092915050565b5f819050602082019050919050565b610c3181610961565b82525050565b5f610c428383610c28565b60208301905092915050565b5f602082019050919050565b5f610c6482610bff565b610c6e8185610c09565b9350610c7983610c19565b805f5b83811015610ca9578151610c908882610c37565b9750610c9b83610c4e565b925050600181019050610c7c565b5085935050505092915050565b5f6020820190508181035f830152610cce8184610c5a565b905092915050565b610cdf81610a11565b82525050565b5f602082019050610cf85f830184610cd6565b92915050565b5f819050919050565b610d1081610cfe565b8114610d1a575f5ffd5b50565b5f81359050610d2b81610d07565b92915050565b5f5f5f5f60808587031215610d4957610d48610959565b5b5f610d5687828801610a38565b9450506020610d6787828801610980565b9350506040610d7887828801610d1d565b9250506060610d8987828801610980565b91505092959194509250565b610d9e81610961565b82525050565b5f602082019050610db75f830184610d95565b92915050565b610dc681610a11565b82525050565b610dd581610cfe565b82525050565b610de4816109bf565b82525050565b5f67ffffffffffffffff82169050919050565b610e0681610dea565b82525050565b60e082015f820151610e205f850182610dbd565b506020820151610e336020850182610dbd565b506040820151610e466040850182610c28565b506060820151610e596060850182610dcc565b506080820151610e6c6080850182610ddb565b5060a0820151610e7f60a0850182610dfd565b5060c0820151610e9260c0850182610dfd565b50505050565b5f60e082019050610eab5f830184610e0c565b9291505056fea2646970667358221220a7547cea23351bab93f05a28cc23efaacdec418f139f30159cae2760fd1c602364736f6c63430008210033","linkReferences":{}},"methodIdentifiers":{"depositNFT(address,uint256,bytes32,uint256)":"e8810282","emergencyWithdraw(address,uint256,address)":"551512de","getPosition(uint256)":"eb02c301","getPositionsByOwner(address)":"6a5d8e8f","isPositionActive(uint256)":"01785285","isPositionUnlocked(uint256)":"63ccce4f","onERC721Received(address,address,uint256,bytes)":"150b7a02","owner()":"8da5cb5b","pause()":"8456cb59","paused()":"5c975abb","relayer()":"8406c079","renounceOwnership()":"715018a6","setRelayer(address)":"6548e9bc","totalPositions()":"fda1fa5f","transferOwnership(address)":"f2fde38b","unlockPosition(uint256)":"687cb353","unpause()":"3f4ba83a","withdrawNFT(uint256)":"023245d7"},"id":44}