{"abi":[{"type":"constructor","inputs":[{"name":"initialSigner","type":"address","internalType":"address"}],"stateMutability":"nonpayable"},{"type":"function","name":"BPS_DENOMINATOR","inputs":[],"outputs":[{"name":"","type":"uint256","internalType":"uint256"}],"stateMutability":"view"},{"type":"function","name":"LIQUIDATION_THRESHOLD_BPS","inputs":[],"outputs":[{"name":"","type":"uint256","internalType":"uint256"}],"stateMutability":"view"},{"type":"function","name":"MAX_ATTESTATION_AGE","inputs":[],"outputs":[{"name":"","type":"uint256","internalType":"uint256"}],"stateMutability":"view"},{"type":"function","name":"MAX_LTV_BPS","inputs":[],"outputs":[{"name":"","type":"uint256","internalType":"uint256"}],"stateMutability":"view"},{"type":"function","name":"PRICE_HAIRCUT_BPS","inputs":[],"outputs":[{"name":"","type":"uint256","internalType":"uint256"}],"stateMutability":"view"},{"type":"function","name":"calculateCollateralValues","inputs":[{"name":"floorPriceUsd","type":"uint256","internalType":"uint256"}],"outputs":[{"name":"collateralValue","type":"uint256","internalType":"uint256"},{"name":"maxBorrow","type":"uint256","internalType":"uint256"}],"stateMutability":"pure"},{"type":"function","name":"getLatestAttestation","inputs":[{"name":"nftContract","type":"address","internalType":"address"},{"name":"tokenId","type":"uint256","internalType":"uint256"}],"outputs":[{"name":"","type":"tuple","internalType":"struct IOracleVerifier.PriceAttestation","components":[{"name":"nftContract","type":"address","internalType":"address"},{"name":"tokenId","type":"uint256","internalType":"uint256"},{"name":"floorPriceWei","type":"uint256","internalType":"uint256"},{"name":"ethUsdPrice","type":"uint256","internalType":"uint256"},{"name":"collateralValue","type":"uint256","internalType":"uint256"},{"name":"maxBorrowAmount","type":"uint256","internalType":"uint256"},{"name":"timestamp","type":"uint256","internalType":"uint256"},{"name":"expiresAt","type":"uint256","internalType":"uint256"}]}],"stateMutability":"view"},{"type":"function","name":"isAttestationValid","inputs":[{"name":"nftContract","type":"address","internalType":"address"},{"name":"tokenId","type":"uint256","internalType":"uint256"}],"outputs":[{"name":"","type":"bool","internalType":"bool"}],"stateMutability":"view"},{"type":"function","name":"oracleSigner","inputs":[],"outputs":[{"name":"","type":"address","internalType":"address"}],"stateMutability":"view"},{"type":"function","name":"owner","inputs":[],"outputs":[{"name":"","type":"address","internalType":"address"}],"stateMutability":"view"},{"type":"function","name":"renounceOwnership","inputs":[],"outputs":[],"stateMutability":"nonpayable"},{"type":"function","name":"setOracleSigner","inputs":[{"name":"newSigner","type":"address","internalType":"address"}],"outputs":[],"stateMutability":"nonpayable"},{"type":"function","name":"transferOwnership","inputs":[{"name":"newOwner","type":"address","internalType":"address"}],"outputs":[],"stateMutability":"nonpayable"},{"type":"function","name":"verifyAttestation","inputs":[{"name":"attestation","type":"tuple","internalType":"struct IOracleVerifier.PriceAttestation","components":[{"name":"nftContract","type":"address","internalType":"address"},{"name":"tokenId","type":"uint256","internalType":"uint256"},{"name":"floorPriceWei","type":"uint256","internalType":"uint256"},{"name":"ethUsdPrice","type":"uint256","internalType":"uint256"},{"name":"collateralValue","type":"uint256","internalType":"uint256"},{"name":"maxBorrowAmount","type":"uint256","internalType":"uint256"},{"name":"timestamp","type":"uint256","internalType":"uint256"},{"name":"expiresAt","type":"uint256","internalType":"uint256"}]},{"name":"signature","type":"bytes","internalType":"bytes"}],"outputs":[{"name":"","type":"bool","internalType":"bool"}],"stateMutability":"nonpayable"},{"type":"event","name":"AttestationVerified","inputs":[{"name":"nftContract","type":"address","indexed":true,"internalType":"address"},{"name":"tokenId","type":"uint256","indexed":true,"internalType":"uint256"},{"name":"collateralValue","type":"uint256","indexed":false,"internalType":"uint256"},{"name":"maxBorrowAmount","type":"uint256","indexed":false,"internalType":"uint256"},{"name":"timestamp","type":"uint256","indexed":false,"internalType":"uint256"}],"anonymous":false},{"type":"event","name":"OracleSignerUpdated","inputs":[{"name":"oldSigner","type":"address","indexed":true,"internalType":"address"},{"name":"newSigner","type":"address","indexed":true,"internalType":"address"}],"anonymous":false},{"type":"event","name":"OwnershipTransferred","inputs":[{"name":"previousOwner","type":"address","indexed":true,"internalType":"address"},{"name":"newOwner","type":"address","indexed":true,"internalType":"address"}],"anonymous":false},{"type":"error","name":"AttestationAlreadyUsed","inputs":[]},{"type":"error","name":"AttestationExpired","inputs":[]},{"type":"error","name":"InvalidOracleSigner","inputs":[]},{"type":"error","name":"InvalidSignature","inputs":[]},{"type":"error","name":"OwnableInvalidOwner","inputs":[{"name":"owner","type":"address","internalType":"address"}]},{"type":"error","name":"OwnableUnauthorizedAccount","inputs":[{"name":"account","type":"address","internalType":"address"}]}],"bytecode":{"object":"0x608060405234801561000f575f5ffd5b50604051610bad380380610bad83398181016040528101906100319190610217565b335f73ffffffffffffffffffffffffffffffffffffffff168173ffffffffffffffffffffffffffffffffffffffff16036100a2575f6040517f1e4fbdf70000000000000000000000000000000000000000000000000000000081526004016100999190610251565b60405180910390fd5b6100b1816100f860201b60201c565b508060015f6101000a81548173ffffffffffffffffffffffffffffffffffffffff021916908373ffffffffffffffffffffffffffffffffffffffff1602179055505061026a565b5f5f5f9054906101000a900473ffffffffffffffffffffffffffffffffffffffff169050815f5f6101000a81548173ffffffffffffffffffffffffffffffffffffffff021916908373ffffffffffffffffffffffffffffffffffffffff1602179055508173ffffffffffffffffffffffffffffffffffffffff168173ffffffffffffffffffffffffffffffffffffffff167f8be0079c531659141344cd1fd0a4f28419497f9722a3daafe3b4186f6b6457e060405160405180910390a35050565b5f5ffd5b5f73ffffffffffffffffffffffffffffffffffffffff82169050919050565b5f6101e6826101bd565b9050919050565b6101f6816101dc565b8114610200575f5ffd5b50565b5f81519050610211816101ed565b92915050565b5f6020828403121561022c5761022b6101b9565b5b5f61023984828501610203565b91505092915050565b61024b816101dc565b82525050565b5f6020820190506102645f830184610242565b92915050565b610936806102775f395ff3fe608060405234801561000f575f5ffd5b50600436106100e8575f3560e01c80638da5cb5b1161008a578063e101353a11610064578063e101353a14610226578063e1a4521814610257578063f07c6aa914610275578063f2fde38b146102a5576100e8565b80638da5cb5b146101ba578063b9f7bb8d146101d8578063cefb5195146101f6576100e8565b806328bff9db116100c657806328bff9db1461014657806355021bc8146101625780636e92510c14610192578063715018a6146101b0576100e8565b80630c6d5a58146100ec5780631709a61b1461010a5780631bfaae1d14610128575b5f5ffd5b6100f46102c1565b604051610101919061058a565b60405180910390f35b6101126102c7565b60405161011f91906105e2565b60405180910390f35b6101306102cb565b60405161013d919061058a565b60405180910390f35b610160600480360381019061015b919061062d565b6102d1565b005b61017c600480360381019061017791906106dc565b6102dc565b6040516101899190610755565b60405180910390f35b61019a6102e4565b6040516101a7919061058a565b60405180910390f35b6101b86102ea565b005b6101c26102fd565b6040516101cf91906105e2565b60405180910390f35b6101e0610324565b6040516101ed919061058a565b60405180910390f35b610210600480360381019061020b9190610798565b61032a565b60405161021d9190610894565b60405180910390f35b610240600480360381019061023b91906108ae565b610338565b60405161024e9291906108d9565b60405180910390f35b61025f61033f565b60405161026c919061058a565b60405180910390f35b61028f600480360381019061028a9190610798565b610345565b60405161029c9190610755565b60405180910390f35b6102bf60048036038101906102ba919061062d565b61034c565b005b61138881565b5f90565b610fa081565b6102d96103d0565b50565b5f9392505050565b61138881565b6102f26103d0565b6102fb5f610457565b565b5f5f5f9054906101000a900473ffffffffffffffffffffffffffffffffffffffff16905090565b61012c81565b61033261051f565b92915050565b5f5f915091565b61271081565b5f92915050565b6103546103d0565b5f73ffffffffffffffffffffffffffffffffffffffff168173ffffffffffffffffffffffffffffffffffffffff16036103c4575f6040517f1e4fbdf70000000000000000000000000000000000000000000000000000000081526004016103bb91906105e2565b60405180910390fd5b6103cd81610457565b50565b6103d8610518565b73ffffffffffffffffffffffffffffffffffffffff166103f66102fd565b73ffffffffffffffffffffffffffffffffffffffff161461045557610419610518565b6040517f118cdaa700000000000000000000000000000000000000000000000000000000815260040161044c91906105e2565b60405180910390fd5b565b5f5f5f9054906101000a900473ffffffffffffffffffffffffffffffffffffffff169050815f5f6101000a81548173ffffffffffffffffffffffffffffffffffffffff021916908373ffffffffffffffffffffffffffffffffffffffff1602179055508173ffffffffffffffffffffffffffffffffffffffff168173ffffffffffffffffffffffffffffffffffffffff167f8be0079c531659141344cd1fd0a4f28419497f9722a3daafe3b4186f6b6457e060405160405180910390a35050565b5f33905090565b6040518061010001604052805f73ffffffffffffffffffffffffffffffffffffffff1681526020015f81526020015f81526020015f81526020015f81526020015f81526020015f81526020015f81525090565b5f819050919050565b61058481610572565b82525050565b5f60208201905061059d5f83018461057b565b92915050565b5f73ffffffffffffffffffffffffffffffffffffffff82169050919050565b5f6105cc826105a3565b9050919050565b6105dc816105c2565b82525050565b5f6020820190506105f55f8301846105d3565b92915050565b5f5ffd5b5f5ffd5b61060c816105c2565b8114610616575f5ffd5b50565b5f8135905061062781610603565b92915050565b5f60208284031215610642576106416105fb565b5b5f61064f84828501610619565b91505092915050565b5f5ffd5b5f610100828403121561067257610671610658565b5b81905092915050565b5f5ffd5b5f5ffd5b5f5ffd5b5f5f83601f84011261069c5761069b61067b565b5b8235905067ffffffffffffffff8111156106b9576106b861067f565b5b6020830191508360018202830111156106d5576106d4610683565b5b9250929050565b5f5f5f61012084860312156106f4576106f36105fb565b5b5f6107018682870161065c565b93505061010084013567ffffffffffffffff811115610723576107226105ff565b5b61072f86828701610687565b92509250509250925092565b5f8115159050919050565b61074f8161073b565b82525050565b5f6020820190506107685f830184610746565b92915050565b61077781610572565b8114610781575f5ffd5b50565b5f813590506107928161076e565b92915050565b5f5f604083850312156107ae576107ad6105fb565b5b5f6107bb85828601610619565b92505060206107cc85828601610784565b9150509250929050565b6107df816105c2565b82525050565b6107ee81610572565b82525050565b61010082015f8201516108095f8501826107d6565b50602082015161081c60208501826107e5565b50604082015161082f60408501826107e5565b50606082015161084260608501826107e5565b50608082015161085560808501826107e5565b5060a082015161086860a08501826107e5565b5060c082015161087b60c08501826107e5565b5060e082015161088e60e08501826107e5565b50505050565b5f610100820190506108a85f8301846107f4565b92915050565b5f602082840312156108c3576108c26105fb565b5b5f6108d084828501610784565b91505092915050565b5f6040820190506108ec5f83018561057b565b6108f9602083018461057b565b939250505056fea264697066735822122015b35d6466690b588afe1a8e553200514bf070e114e5007802fdea4a540eb3bd64736f6c63430008210033","linkReferences":{}},"methodIdentifiers":{"BPS_DENOMINATOR()":"e1a45218","LIQUIDATION_THRESHOLD_BPS()":"0c6d5a58","MAX_ATTESTATION_AGE()":"b9f7bb8d","MAX_LTV_BPS()":"1bfaae1d","PRICE_HAIRCUT_BPS()":"6e92510c","calculateCollateralValues(uint256)":"e101353a","getLatestAttestation(address,uint256)":"cefb5195","isAttestationValid(address,uint256)":"f07c6aa9","oracleSigner()":"1709a61b","owner()":"8da5cb5b","renounceOwnership()":"715018a6","setOracleSigner(address)":"28bff9db","transferOwnership(address)":"f2fde38b","verifyAttestation((address,uint256,uint256,uint256,uint256,uint256,uint256,uint256),bytes)":"55021bc8"},"id":43}