{"abi":[{"type":"constructor","inputs":[{"name":"_vault","type":"address","internalType":"address"},{"name":"_oracleVerifier","type":"address","internalType":"address"}],"stateMutability":"nonpayable"},{"type":"function","name":"batchSetCollectionSupport","inputs":[{"name":"collections","type":"address[]","internalType":"address[]"},{"name":"supported","type":"bool[]","internalType":"bool[]"}],"outputs":[],"stateMutability":"nonpayable"},{"type":"function","name":"depositNFT","inputs":[{"name":"nftContract","type":"address","internalType":"address"},{"name":"tokenId","type":"uint256","internalType":"uint256"},{"name":"stellarAddress","type":"bytes32","internalType":"bytes32"},{"name":"lockDuration","type":"uint256","internalType":"uint256"}],"outputs":[{"name":"positionId","type":"uint256","internalType":"uint256"}],"stateMutability":"nonpayable"},{"type":"function","name":"depositWithAttestation","inputs":[{"name":"nftContract","type":"address","internalType":"address"},{"name":"tokenId","type":"uint256","internalType":"uint256"},{"name":"stellarAddress","type":"bytes32","internalType":"bytes32"},{"name":"lockDuration","type":"uint256","internalType":"uint256"},{"name":"attestation","type":"tuple","internalType":"struct IOracleVerifier.PriceAttestation","components":[{"name":"nftContract","type":"address","internalType":"address"},{"name":"tokenId","type":"uint256","internalType":"uint256"},{"name":"floorPriceWei","type":"uint256","internalType":"uint256"},{"name":"ethUsdPrice","type":"uint256","internalType":"uint256"},{"name":"collateralValue","type":"uint256","internalType":"uint256"},{"name":"maxBorrowAmount","type":"uint256","internalType":"uint256"},{"name":"timestamp","type":"uint256","internalType":"uint256"},{"name":"expiresAt","type":"uint256","internalType":"uint256"}]},{"name":"oracleSignature","type":"bytes","internalType":"bytes"}],"outputs":[{"name":"positionId","type":"uint256","internalType":"uint256"}],"stateMutability":"nonpayable"},{"type":"function","name":"isCollectionSupported","inputs":[{"name":"collection","type":"address","internalType":"address"}],"outputs":[{"name":"","type":"bool","internalType":"bool"}],"stateMutability":"view"},{"type":"function","name":"oracleVerifier","inputs":[],"outputs":[{"name":"","type":"address","internalType":"contract IOracleVerifier"}],"stateMutability":"view"},{"type":"function","name":"owner","inputs":[],"outputs":[{"name":"","type":"address","internalType":"address"}],"stateMutability":"view"},{"type":"function","name":"pause","inputs":[],"outputs":[],"stateMutability":"nonpayable"},{"type":"function","name":"paused","inputs":[],"outputs":[{"name":"","type":"bool","internalType":"bool"}],"stateMutability":"view"},{"type":"function","name":"positionAttestations","inputs":[{"name":"","type":"uint256","internalType":"uint256"}],"outputs":[{"name":"","type":"bytes32","internalType":"bytes32"}],"stateMutability":"view"},{"type":"function","name":"renounceOwnership","inputs":[],"outputs":[],"stateMutability":"nonpayable"},{"type":"function","name":"setCollectionSupport","inputs":[{"name":"collection","type":"address","internalType":"address"},{"name":"supported","type":"bool","internalType":"bool"}],"outputs":[],"stateMutability":"nonpayable"},{"type":"function","name":"setContracts","inputs":[{"name":"_vault","type":"address","internalType":"address"},{"name":"_oracleVerifier","type":"address","internalType":"address"}],"outputs":[],"stateMutability":"nonpayable"},{"type":"function","name":"supportedCollections","inputs":[{"name":"","type":"address","internalType":"address"}],"outputs":[{"name":"","type":"bool","internalType":"bool"}],"stateMutability":"view"},{"type":"function","name":"transferOwnership","inputs":[{"name":"newOwner","type":"address","internalType":"address"}],"outputs":[],"stateMutability":"nonpayable"},{"type":"function","name":"unpause","inputs":[],"outputs":[],"stateMutability":"nonpayable"},{"type":"function","name":"vault","inputs":[],"outputs":[{"name":"","type":"address","internalType":"contract INFTVault"}],"stateMutability":"view"},{"type":"event","name":"CollateralPositionCreated","inputs":[{"name":"positionId","type":"uint256","indexed":true,"internalType":"uint256"},{"name":"depositor","type":"address","indexed":true,"internalType":"address"},{"name":"nftContract","type":"address","indexed":true,"internalType":"address"},{"name":"tokenId","type":"uint256","indexed":false,"internalType":"uint256"},{"name":"collateralValue","type":"uint256","indexed":false,"internalType":"uint256"},{"name":"maxBorrowAmount","type":"uint256","indexed":false,"internalType":"uint256"}],"anonymous":false},{"type":"event","name":"CollectionWhitelistUpdated","inputs":[{"name":"collection","type":"address","indexed":true,"internalType":"address"},{"name":"supported","type":"bool","indexed":false,"internalType":"bool"}],"anonymous":false},{"type":"event","name":"ContractsUpdated","inputs":[{"name":"vault","type":"address","indexed":false,"internalType":"address"},{"name":"oracleVerifier","type":"address","indexed":false,"internalType":"address"}],"anonymous":false},{"type":"event","name":"OwnershipTransferred","inputs":[{"name":"previousOwner","type":"address","indexed":true,"internalType":"address"},{"name":"newOwner","type":"address","indexed":true,"internalType":"address"}],"anonymous":false},{"type":"event","name":"Paused","inputs":[{"name":"account","type":"address","indexed":false,"internalType":"address"}],"anonymous":false},{"type":"event","name":"Unpaused","inputs":[{"name":"account","type":"address","indexed":false,"internalType":"address"}],"anonymous":false},{"type":"error","name":"ArrayLengthMismatch","inputs":[]},{"type":"error","name":"AttestationMismatch","inputs":[]},{"type":"error","name":"AttestationVerificationFailed","inputs":[]},{"type":"error","name":"CollectionNotSupported","inputs":[]},{"type":"error","name":"EnforcedPause","inputs":[]},{"type":"error","name":"ExpectedPause","inputs":[]},{"type":"error","name":"OwnableInvalidOwner","inputs":[{"name":"owner","type":"address","internalType":"address"}]},{"type":"error","name":"OwnableUnauthorizedAccount","inputs":[{"name":"account","type":"address","internalType":"address"}]},{"type":"error","name":"ReentrancyGuardReentrantCall","inputs":[]}],"bytecode":{"object":"0x608060405234801561000f575f5ffd5b50604051611169380380611169833981810160405281019061003191906102ae565b335f73ffffffffffffffffffffffffffffffffffffffff168173ffffffffffffffffffffffffffffffffffffffff16036100a2575f6040517f1e4fbdf700000000000000000000000000000000000000000000000000000000815260040161009991906102fb565b60405180910390fd5b6100b18161015d60201b60201c565b5060016100d06100c561021e60201b60201c565b61024760201b60201c565b5f01819055508160015f6101000a81548173ffffffffffffffffffffffffffffffffffffffff021916908373ffffffffffffffffffffffffffffffffffffffff1602179055508060025f6101000a81548173ffffffffffffffffffffffffffffffffffffffff021916908373ffffffffffffffffffffffffffffffffffffffff1602179055505050610314565b5f5f5f9054906101000a900473ffffffffffffffffffffffffffffffffffffffff169050815f5f6101000a81548173ffffffffffffffffffffffffffffffffffffffff021916908373ffffffffffffffffffffffffffffffffffffffff1602179055508173ffffffffffffffffffffffffffffffffffffffff168173ffffffffffffffffffffffffffffffffffffffff167f8be0079c531659141344cd1fd0a4f28419497f9722a3daafe3b4186f6b6457e060405160405180910390a35050565b5f7f9b779b17422d0df92223018b32b4d1fa46e071723d6817e2486d003becc55f005f1b905090565b5f819050919050565b5f5ffd5b5f73ffffffffffffffffffffffffffffffffffffffff82169050919050565b5f61027d82610254565b9050919050565b61028d81610273565b8114610297575f5ffd5b50565b5f815190506102a881610284565b92915050565b5f5f604083850312156102c4576102c3610250565b5b5f6102d18582860161029a565b92505060206102e28582860161029a565b9150509250929050565b6102f581610273565b82525050565b5f60208201905061030e5f8301846102ec565b92915050565b610e48806103215f395ff3fe608060405234801561000f575f5ffd5b50600436106100fe575f3560e01c80638456cb5911610095578063d99458a111610064578063d99458a114610272578063e88102821461028e578063f2fde38b146102be578063fbfa77cf146102da576100fe565b80638456cb59146101fe5780638da5cb5b14610208578063d15ee5e014610226578063d8952a4914610256576100fe565b80634c533808116100d15780634c5338081461018a5780635c975abb146101a65780636ddd9f21146101c4578063715018a6146101f4576100fe565b80631ac0a23f146101025780633b34f7a9146101205780633f4ba83a14610150578063497b4ce51461015a575b5f5ffd5b61010a6102f8565b60405161011791906108b4565b60405180910390f35b61013a60048036038101906101359190610908565b61031d565b604051610147919061094b565b60405180910390f35b610158610332565b005b610174600480360381019061016f919061099f565b610344565b60405161018191906109e4565b60405180910390f35b6101a4600480360381019061019f9190610ab3565b61034a565b005b6101ae610358565b6040516101bb91906109e4565b60405180910390f35b6101de60048036038101906101d9919061099f565b61036d565b6040516101eb91906109e4565b60405180910390f35b6101fc61038a565b005b61020661039d565b005b6102106103af565b60405161021d9190610b40565b60405180910390f35b610240600480360381019061023b9190610bfb565b6103d6565b60405161024d9190610cb6565b60405180910390f35b610270600480360381019061026b9190610ccf565b6103fa565b005b61028c60048036038101906102879190610d37565b610406565b005b6102a860048036038101906102a39190610d75565b610412565b6040516102b59190610cb6565b60405180910390f35b6102d860048036038101906102d3919061099f565b610433565b005b6102e26104b7565b6040516102ef9190610df9565b60405180910390f35b60025f9054906101000a900473ffffffffffffffffffffffffffffffffffffffff1681565b6004602052805f5260405f205f915090505481565b61033a6104dc565b610342610563565b565b5f919050565b6103526104dc565b50505050565b5f5f60149054906101000a900460ff16905090565b6003602052805f5260405f205f915054906101000a900460ff1681565b6103926104dc565b61039b5f6105c4565b565b6103a56104dc565b6103ad610685565b565b5f5f5f9054906101000a900473ffffffffffffffffffffffffffffffffffffffff16905090565b5f6103df6106e7565b6103e7610709565b6103ef61074a565b979650505050505050565b6104026104dc565b5050565b61040e6104dc565b5050565b5f61041b6106e7565b610423610709565b61042b61074a565b949350505050565b61043b6104dc565b5f73ffffffffffffffffffffffffffffffffffffffff168173ffffffffffffffffffffffffffffffffffffffff16036104ab575f6040517f1e4fbdf70000000000000000000000000000000000000000000000000000000081526004016104a29190610b40565b60405180910390fd5b6104b4816105c4565b50565b60015f9054906101000a900473ffffffffffffffffffffffffffffffffffffffff1681565b6104e4610764565b73ffffffffffffffffffffffffffffffffffffffff166105026103af565b73ffffffffffffffffffffffffffffffffffffffff161461056157610525610764565b6040517f118cdaa70000000000000000000000000000000000000000000000000000000081526004016105589190610b40565b60405180910390fd5b565b61056b61076b565b5f5f60146101000a81548160ff0219169083151502179055507f5db9ee0a495bf2e6ff9c91a7834c1ba4fdd244a5e8aa4e537bd38aeae4b073aa6105ad610764565b6040516105ba9190610b40565b60405180910390a1565b5f5f5f9054906101000a900473ffffffffffffffffffffffffffffffffffffffff169050815f5f6101000a81548173ffffffffffffffffffffffffffffffffffffffff021916908373ffffffffffffffffffffffffffffffffffffffff1602179055508173ffffffffffffffffffffffffffffffffffffffff168173ffffffffffffffffffffffffffffffffffffffff167f8be0079c531659141344cd1fd0a4f28419497f9722a3daafe3b4186f6b6457e060405160405180910390a35050565b61068d610709565b60015f60146101000a81548160ff0219169083151502179055507f62e78cea01bee320cd4e420270b5ea74000d11b0c9f74754ebdbfc544b05a2586106d0610764565b6040516106dd9190610b40565b60405180910390a1565b6106ef6107ab565b60026107016106fc6107ec565b610815565b5f0181905550565b610711610358565b15610748576040517fd93c066500000000000000000000000000000000000000000000000000000000815260040160405180910390fd5b565b600161075c6107576107ec565b610815565b5f0181905550565b5f33905090565b610773610358565b6107a9576040517f8dfc202b00000000000000000000000000000000000000000000000000000000815260040160405180910390fd5b565b6107b361081e565b156107ea576040517f3ee5aeb500000000000000000000000000000000000000000000000000000000815260040160405180910390fd5b565b5f7f9b779b17422d0df92223018b32b4d1fa46e071723d6817e2486d003becc55f005f1b905090565b5f819050919050565b5f600261083161082c6107ec565b610815565b5f015414905090565b5f73ffffffffffffffffffffffffffffffffffffffff82169050919050565b5f819050919050565b5f61087c6108776108728461083a565b610859565b61083a565b9050919050565b5f61088d82610862565b9050919050565b5f61089e82610883565b9050919050565b6108ae81610894565b82525050565b5f6020820190506108c75f8301846108a5565b92915050565b5f5ffd5b5f5ffd5b5f819050919050565b6108e7816108d5565b81146108f1575f5ffd5b50565b5f81359050610902816108de565b92915050565b5f6020828403121561091d5761091c6108cd565b5b5f61092a848285016108f4565b91505092915050565b5f819050919050565b61094581610933565b82525050565b5f60208201905061095e5f83018461093c565b92915050565b5f61096e8261083a565b9050919050565b61097e81610964565b8114610988575f5ffd5b50565b5f8135905061099981610975565b92915050565b5f602082840312156109b4576109b36108cd565b5b5f6109c18482850161098b565b91505092915050565b5f8115159050919050565b6109de816109ca565b82525050565b5f6020820190506109f75f8301846109d5565b92915050565b5f5ffd5b5f5ffd5b5f5ffd5b5f5f83601f840112610a1e57610a1d6109fd565b5b8235905067ffffffffffffffff811115610a3b57610a3a610a01565b5b602083019150836020820283011115610a5757610a56610a05565b5b9250929050565b5f5f83601f840112610a7357610a726109fd565b5b8235905067ffffffffffffffff811115610a9057610a8f610a01565b5b602083019150836020820283011115610aac57610aab610a05565b5b9250929050565b5f5f5f5f60408587031215610acb57610aca6108cd565b5b5f85013567ffffffffffffffff811115610ae857610ae76108d1565b5b610af487828801610a09565b9450945050602085013567ffffffffffffffff811115610b1757610b166108d1565b5b610b2387828801610a5e565b925092505092959194509250565b610b3a81610964565b82525050565b5f602082019050610b535f830184610b31565b92915050565b610b6281610933565b8114610b6c575f5ffd5b50565b5f81359050610b7d81610b59565b92915050565b5f5ffd5b5f6101008284031215610b9d57610b9c610b83565b5b81905092915050565b5f5f83601f840112610bbb57610bba6109fd565b5b8235905067ffffffffffffffff811115610bd857610bd7610a01565b5b602083019150836001820283011115610bf457610bf3610a05565b5b9250929050565b5f5f5f5f5f5f5f6101a0888a031215610c1757610c166108cd565b5b5f610c248a828b0161098b565b9750506020610c358a828b016108f4565b9650506040610c468a828b01610b6f565b9550506060610c578a828b016108f4565b9450506080610c688a828b01610b87565b93505061018088013567ffffffffffffffff811115610c8a57610c896108d1565b5b610c968a828b01610ba6565b925092505092959891949750929550565b610cb0816108d5565b82525050565b5f602082019050610cc95f830184610ca7565b92915050565b5f5f60408385031215610ce557610ce46108cd565b5b5f610cf28582860161098b565b9250506020610d038582860161098b565b9150509250929050565b610d16816109ca565b8114610d20575f5ffd5b50565b5f81359050610d3181610d0d565b92915050565b5f5f60408385031215610d4d57610d4c6108cd565b5b5f610d5a8582860161098b565b9250506020610d6b85828601610d23565b9150509250929050565b5f5f5f5f60808587031215610d8d57610d8c6108cd565b5b5f610d9a8782880161098b565b9450506020610dab878288016108f4565b9350506040610dbc87828801610b6f565b9250506060610dcd878288016108f4565b91505092959194509250565b5f610de382610883565b9050919050565b610df381610dd9565b82525050565b5f602082019050610e0c5f830184610dea565b9291505056fea26469706673582212209eeaf3133c8d727eb16908de5bc73755e2e5eece70fe78222aaec37ef42359b464736f6c63430008210033","linkReferences":{}},"methodIdentifiers":{"batchSetCollectionSupport(address[],bool[])":"4c533808","depositNFT(address,uint256,bytes32,uint256)":"e8810282","depositWithAttestation(address,uint256,bytes32,uint256,(address,uint256,uint256,uint256,uint256,uint256,uint256,uint256),bytes)":"d15ee5e0","isCollectionSupported(address)":"497b4ce5","oracleVerifier()":"1ac0a23f","owner()":"8da5cb5b","pause()":"8456cb59","paused()":"5c975abb","positionAttestations(uint256)":"3b34f7a9","renounceOwnership()":"715018a6","setCollectionSupport(address,bool)":"d99458a1","setContracts(address,address)":"d8952a49","supportedCollections(address)":"6ddd9f21","transferOwnership(address)":"f2fde38b","unpause()":"3f4ba83a","vault()":"fbfa77cf"},"id":42}